{
  "_format": "hh-sol-artifact-1",
  "contractName": "TipJar",
  "sourceName": "src/contracts/TipJar.sol",
  "abi": [
    {
      "inputs": [],
      "stateMutability": "nonpayable",
      "type": "constructor"
    },
    {
      "anonymous": false,
      "inputs": [
        {
          "indexed": true,
          "internalType": "address",
          "name": "from",
          "type": "address"
        },
        {
          "indexed": false,
          "internalType": "string",
          "name": "message",
          "type": "string"
        },
        {
          "indexed": false,
          "internalType": "string",
          "name": "name",
          "type": "string"
        },
        {
          "indexed": false,
          "internalType": "uint256",
          "name": "amount",
          "type": "uint256"
        }
      ],
      "name": "NewTip",
      "type": "event"
    },
    {
      "anonymous": false,
      "inputs": [
        {
          "indexed": false,
          "internalType": "uint256",
          "name": "amount",
          "type": "uint256"
        }
      ],
      "name": "NewWithdraw",
      "type": "event"
    },
    {
      "inputs": [],
      "name": "getAllTips",
      "outputs": [
        {
          "components": [
            {
              "internalType": "address",
              "name": "sender",
              "type": "address"
            },
            {
              "internalType": "string",
              "name": "message",
              "type": "string"
            },
            {
              "internalType": "string",
              "name": "name",
              "type": "string"
            },
            {
              "internalType": "uint256",
              "name": "timestamp",
              "type": "uint256"
            },
            {
              "internalType": "uint256",
              "name": "amount",
              "type": "uint256"
            }
          ],
          "internalType": "struct TipJar.Tip[]",
          "name": "",
          "type": "tuple[]"
        }
      ],
      "stateMutability": "view",
      "type": "function"
    },
    {
      "inputs": [
        {
          "internalType": "string",
          "name": "_message",
          "type": "string"
        },
        {
          "internalType": "string",
          "name": "_name",
          "type": "string"
        }
      ],
      "name": "sendTip",
      "outputs": [],
      "stateMutability": "payable",
      "type": "function"
    },
    {
      "inputs": [],
      "name": "totalTips",
      "outputs": [
        {
          "internalType": "uint256",
          "name": "",
          "type": "uint256"
        }
      ],
      "stateMutability": "view",
      "type": "function"
    },
    {
      "inputs": [],
      "name": "withdraw",
      "outputs": [],
      "stateMutability": "nonpayable",
      "type": "function"
    }
  ],
  "bytecode": "0x608060405234801561001057600080fd5b5033600160006101000a81548173ffffffffffffffffffffffffffffffffffffffff021916908373ffffffffffffffffffffffffffffffffffffffff160217905550610dc8806100616000396000f3fe60806040526004361061003f5760003560e01c8063399ddbbd146100445780633ccfd60b1461006f57806354cafb0414610086578063990de8ae146100a2575b600080fd5b34801561005057600080fd5b506100596100cd565b6040516100669190610996565b60405180910390f35b34801561007b57600080fd5b506100846102ba565b005b6100a0600480360381019061009b91906106e4565b61040b565b005b3480156100ae57600080fd5b506100b76105d3565b6040516100c49190610a5d565b60405180910390f35b60606002805480602002602001604051908101604052809291908181526020016000905b828210156102b157838290600052602060002090600502016040518060a00160405290816000820160009054906101000a900473ffffffffffffffffffffffffffffffffffffffff1673ffffffffffffffffffffffffffffffffffffffff1673ffffffffffffffffffffffffffffffffffffffff16815260200160018201805461017a90610c13565b80601f01602080910402602001604051908101604052809291908181526020018280546101a690610c13565b80156101f35780601f106101c8576101008083540402835291602001916101f3565b820191906000526020600020905b8154815290600101906020018083116101d657829003601f168201915b5050505050815260200160028201805461020c90610c13565b80601f016020809104026020016040519081016040528092919081815260200182805461023890610c13565b80156102855780601f1061025a57610100808354040283529160200191610285565b820191906000526020600020905b81548152906001019060200180831161026857829003601f168201915b5050505050815260200160038201548152602001600482015481525050815260200190600101906100f1565b50505050905090565b600047905060008111610302576040517f08c379a00000000000000000000000000000000000000000000000000000000081526004016102f9906109fd565b60405180910390fd5b6000600160009054906101000a900473ffffffffffffffffffffffffffffffffffffffff1673ffffffffffffffffffffffffffffffffffffffff168260405161034a90610981565b60006040518083038185875af1925050503d8060008114610387576040519150601f19603f3d011682016040523d82523d6000602084013e61038c565b606091505b50509050806103d0576040517f08c379a00000000000000000000000000000000000000000000000000000000081526004016103c790610a1d565b60405180910390fd5b7f513127da5c0be50bc9c6763cb35c374fb3aa664ff0a1fad404452ada92b59924826040516103ff9190610a5d565b60405180910390a15050565b343373ffffffffffffffffffffffffffffffffffffffff16311015610465576040517f08c379a000000000000000000000000000000000000000000000000000000000815260040161045c90610a3d565b60405180910390fd5b60016000808282546104779190610b3f565b9250508190555060026040518060a001604052803373ffffffffffffffffffffffffffffffffffffffff16815260200184815260200183815260200142815260200134815250908060018154018082558091505060019003906000526020600020906005020160009091909190915060008201518160000160006101000a81548173ffffffffffffffffffffffffffffffffffffffff021916908373ffffffffffffffffffffffffffffffffffffffff16021790555060208201518160010190805190602001906105499291906105d9565b5060408201518160020190805190602001906105669291906105d9565b50606082015181600301556080820151816004015550503373ffffffffffffffffffffffffffffffffffffffff167fb1c1391b0c6c1e7244a4134896b4bc3f12d2c0cdfef990fac76eec58980a8baa8383346040516105c7939291906109b8565b60405180910390a25050565b60005481565b8280546105e590610c13565b90600052602060002090601f016020900481019282610607576000855561064e565b82601f1061062057805160ff191683800117855561064e565b8280016001018555821561064e579182015b8281111561064d578251825591602001919060010190610632565b5b50905061065b919061065f565b5090565b5b80821115610678576000816000905550600101610660565b5090565b600061068f61068a84610a9d565b610a78565b9050828152602081018484840111156106a757600080fd5b6106b2848285610bd1565b509392505050565b600082601f8301126106cb57600080fd5b81356106db84826020860161067c565b91505092915050565b600080604083850312156106f757600080fd5b600083013567ffffffffffffffff81111561071157600080fd5b61071d858286016106ba565b925050602083013567ffffffffffffffff81111561073a57600080fd5b610746858286016106ba565b9150509250929050565b600061075c83836108e6565b905092915050565b61076d81610b95565b82525050565b600061077e82610ade565b6107888185610b01565b93508360208202850161079a85610ace565b8060005b858110156107d657848403895281516107b78582610750565b94506107c283610af4565b925060208a0199505060018101905061079e565b50829750879550505050505092915050565b60006107f382610ae9565b6107fd8185610b1d565b935061080d818560208601610be0565b61081681610d03565b840191505092915050565b600061082c82610ae9565b6108368185610b2e565b9350610846818560208601610be0565b61084f81610d03565b840191505092915050565b6000610867601d83610b2e565b915061087282610d14565b602082019050919050565b600061088a600f83610b2e565b915061089582610d3d565b602082019050919050565b60006108ad600083610b12565b91506108b882610d66565b600082019050919050565b60006108d0601183610b2e565b91506108db82610d69565b602082019050919050565b600060a0830160008301516108fe6000860182610764565b506020830151848203602086015261091682826107e8565b9150506040830151848203604086015261093082826107e8565b91505060608301516109456060860182610963565b5060808301516109586080860182610963565b508091505092915050565b61096c81610bc7565b82525050565b61097b81610bc7565b82525050565b600061098c826108a0565b9150819050919050565b600060208201905081810360008301526109b08184610773565b905092915050565b600060608201905081810360008301526109d28186610821565b905081810360208301526109e68185610821565b90506109f56040830184610972565b949350505050565b60006020820190508181036000830152610a168161085a565b9050919050565b60006020820190508181036000830152610a368161087d565b9050919050565b60006020820190508181036000830152610a56816108c3565b9050919050565b6000602082019050610a726000830184610972565b92915050565b6000610a82610a93565b9050610a8e8282610c45565b919050565b6000604051905090565b600067ffffffffffffffff821115610ab857610ab7610cd4565b5b610ac182610d03565b9050602081019050919050565b6000819050602082019050919050565b600081519050919050565b600081519050919050565b6000602082019050919050565b600082825260208201905092915050565b600081905092915050565b600082825260208201905092915050565b600082825260208201905092915050565b6000610b4a82610bc7565b9150610b5583610bc7565b9250827fffffffffffffffffffffffffffffffffffffffffffffffffffffffffffffffff03821115610b8a57610b89610c76565b5b828201905092915050565b6000610ba082610ba7565b9050919050565b600073ffffffffffffffffffffffffffffffffffffffff82169050919050565b6000819050919050565b82818337600083830152505050565b60005b83811015610bfe578082015181840152602081019050610be3565b83811115610c0d576000848401525b50505050565b60006002820490506001821680610c2b57607f821691505b60208210811415610c3f57610c3e610ca5565b5b50919050565b610c4e82610d03565b810181811067ffffffffffffffff82111715610c6d57610c6c610cd4565b5b80604052505050565b7f4e487b7100000000000000000000000000000000000000000000000000000000600052601160045260246000fd5b7f4e487b7100000000000000000000000000000000000000000000000000000000600052602260045260246000fd5b7f4e487b7100000000000000000000000000000000000000000000000000000000600052604160045260246000fd5b6000601f19601f8301169050919050565b7f596f752068617665206e6f20657468657220746f207769746864726177000000600082015250565b7f5769746864726177206661696c65640000000000000000000000000000000000600082015250565b50565b7f4e6f7420656e6f756768742066756e647300000000000000000000000000000060008201525056fea264697066735822122025a3fc76f2a42e38077acf29c97cf4293403fad58f112b32c4ce461b0dd9af0d64736f6c63430008040033",
  "linkReferences": {},
  "deployedLinkReferences": {}
}